:040000004CEF00F0D1
:100008005382FACF07F0FBCF08F0D9CF09F0DACF47
:100018000AF0F3CF0BF0F4CF0CF0F2AA16EF00F0D1
:1000280018EF00F021EF00F0F2A41DEF00F01FEF31
:1000380000F021EF00F052EC17F0F2AC26EF00F0E0
:1000480028EF00F03EEF00F0A0A02DEF00F02FEF1A
:1000580000F03EEF00F0A1A034EF00F036EF00F022
:100068003EEF00F0000E026E000E016E3AEC18F042
:100078009EEC18F00CC0F4FF0BC0F3FF0AC0DAFFC7
:1000880009C0D9FF08C0FBFF07C0FAFF539211004F
:10009800EBEF15F0310E0101426F000E4F6F000EAD
:1000A800416F000E406FDBC04BF1DCC04CF1DDC08E
:1000B8004DF1DEC04EF1000E436F000E446F000E8E
:1000C800456F000E466F000E516F000E506F000E08
:1000D800526F000E546F320E536F000E566F0A0E99
:1000E800556F000E4A6F000E496F660E576F660E09
:1000F800586F660E596F3F0E5A6FCD0E5B6FCC0E60
:100108005C6FCC0E5D6F3D0E5E6F5BC11BF05CC11A
:100118001CF05DC11DF05EC11EF057C11FF058C133
:1001280020F059C121F05AC122F0F3EC05F01BC0B0
:100138005FF11CC060F11DC061F11EC062F1000ECC
:100148000101646F000E636F000E666F000E656F2D
:100158001E0E676F1E0E686F000E546F780E536F79
:10016800000E566F0A0E556F61EC18F0000E0E6EF9
:10017800000E0D6EBAEC17F0030E89EC17F0780E2E
:100188000D6E2D0E0E6ED0EC18F0F28EF28C4A0E1B
:100198000001666FFF0E676F26EC18F00B0E0E6EEF
:1001A800B80E0D6EA2EC17F052A0DDEF00F0DFEFF5
:1001B80000F0D8EF00F0A5EF01F0F29E000E0E6EF1
:1001C800000E0D6EBAEC17F0BD0E0001666FFE0E44
:1001D800676F26EC18F012EC18F00101426F310E2F
:1001E8004219D8A4FAEF00F0FCEF00F042EF01F05A
:1001F800010E4F6FD50E0001666FFF0E676F26EC7C
:1002080018F0930E0001666FFF0E676F26EC18F06A
:10021800FB0E0001AD6FFF0EAE6F4B0EAF6F010E00
:10022800B06FFEEC17F0B40E0001666FFF0E676F3B
:1002380026EC18F0FB0E0001AD6FFF0EAE6F4D0EF1
:10024800AF6F010EB06FFEEC17F0000E0101526F98
:100258004BC1B1F04CC1B2F00001D890B137B23700
:10026800D890B137B237D890B137B237B1C00DF0A6
:10027800B2C00EF0BAEC17F080EF01F0020E4F6F2B
:10028800710E0001666FFF0E676F26EC18F0F00E16
:100298000001666FFE0E676F26EC18F0FB0E00017A
:1002A800AD6FFF0EAE6F430EAF6F010EB06FFEEC79
:1002B80017F01D0E0001666FFF0E676F26EC18F031
:1002C800FB0E0001AD6FFF0EAE6F450EAF6F010E56
:1002D800B06FFEEC17F043C153F144C154F1000E66
:1002E8000101526F000E516F000E506F010E0E6E1D
:1002F800400E0D6EBAEC17F00001D293F28E1BEF90
:1003080003F0D2A38AEF01F08CEF01F01BEF03F0AA
:10031800000E01014F6F000E0E6E000E0D6EBAEC4E
:1003280017F01BEF03F0D2A39CEF01F09EEF01F052
:100338001BEF03F08CEF01F0000E01014F6F1BEF74
:1003480003F001014F510001B16FB26BB251000AC5
:10035800D8B4B1EF01F0A0EF01F0B151000AD8B460
:10036800E1EF00F0010AD8B485EF01F0030AD8B430
:1003780097EF01F0A0EF01F00101504B512BE80E6F
:10038800501907E1030E5119D8A4CDEF01F0CFEFB2
:1003980001F0FBEF01F05251D8B4D5EF01F0D8EFDE
:1003A80001F0010ED9EF01F0000E526F5251020D0B
:1003B8004B0EF324D96E010EF420DA6EDECFB1F0C5
:1003C800DDCFB2F00001D890B137B237D890B1374D
:1003D800B237D890B137B237B1C00DF0B2C00EF015
:1003E800BAEC17F0000E0101516F000E506F52A2C7
:1003F80000EF02F002EF02F02EEF02F0200E0D6E79
:10040800A10E0E6E070E0F6E000E106E50C011F08A
:1004180051C012F0136A146A10EC11F00DC047F1C4
:100428000EC048F147C10DF048C10EF0000E106E25
:10043800050E0F6E4EEC18F0D8900E300001B16F1B
:100448000D300101496FB1C04AF149C155F14AC1A6
:1004580056F1529250C10DF051C10EF0000E106EBF
:100468000A0E0F6E30EC15F00D500E10D8A43FEFA9
:1004780002F041EF02F036EF03F0FB0E0001666F69
:10048800FF0E676F01015251020D4B0EF324D96E16
:10049800010EF420DA6EDECF68F0DDCF69F026ECCD
:1004A80018F0F80E0001666FFF0E676F26EC18F063
:1004B800F30E0001666FFF0E676F55C168F056C1F5
:1004C80069F026EC18F036EF03F00101504B512B80
:1004D800F40E501906E15105D8A475EF02F077EF34
:1004E80002F092EF02F05251D8B47DEF02F080EFA3
:1004F80002F0010E81EF02F0000E526F5251020D10
:10050800430EF324D96E010EF420DA6EDECF53F1D8
:10051800DDCF54F1000E516F000E506F52A297EFCD
:1005280002F099EF02F0D8EF02F0200E0D6EA10E46
:100538000E6E070E0F6E000E106E50C011F051C0F7
:1005480012F0136A146A10EC11F00DC047F10EC0D6
:1005580048F147C10DF048C10EF0000E106E050EAF
:100568000F6E4EEC18F0D8900E300001B16F0D30C0
:100578000101496FB1C04AF149C155F14AC156F16B
:100588005292530E3C6E010E3D6E570E3E6E010E9A
:100598003F6E50EC0DF001016751080DF3CF0DF0DF
:1005A800F4CF0EF0BAEC17F050C10DF051C10EF0B7
:1005B800000E106E0A0E0F6E30EC15F00D500E1076
:1005C800D8A4E9EF02F0EBEF02F036EF03F0FB0EF0
:1005D8000001666FFF0E676F67C168F0696B26ECF4
:1005E80018F0F90E0001666FFF0E676F26EC18F021
:1005F800FB0E0001666FFF0E676F55C168F056C1AC
:1006080069F026EC18F0F90E0001666FFF0E676FAF
:1006180026EC18F0F30E0001666FFF0E676F53C1EA
:1006280068F054C169F026EC18F036EF03F00101C8
:100638004F510001B16FB26BB251000AD8B427EF25
:1006480003F036EF03F0B151000AD8B436EF03F0E7
:10065800010AD8B4C0EF01F0030AD8B469EF02F078
:1006680036EF03F05290D8EF00F04CEF00F0000E98
:100678000001686F20EE73F0070EDE6AE806FDE2FF
:1006880025C07BF026C07CF02ABE56EF03F02A5026
:1006980007E1250E295CD8B054EF03F056EF03F0BC
:1006A8005FEF03F029042A10D8A45DEF03F05FEF91
:1006B80003F065EF03F0000EC96F160EC86FC5EFA3
:1006C80005F07B517C11D8B46CEF03F06EEF03F0AA
:1006D800C5EF05F07BC0D9FF7CC0DAFFDF50D8A496
:1006E80078EF03F07AEF03F07CEF03F0C5EF05F045
:1006F8007BC0D9FF7CC0DAFFDF507D6F8CEF03F041
:100708007B4B7C2B7BC0D9FF7CC0DAFFDF507D6F31
:10071800200E7D19D8B493EF03F095EF03F084EF22
:1007280003F0F70E7D252D6E2E6AFF0E2E222E5019
:1007380009E1050E2D5CD8A0A4EF03F0A6EF03F0A5
:1007480084EF03F0000E716F000E726F2D0E7D198D
:10075800D8A4B1EF03F0B3EF03F0BFEF03F0010E3D
:10076800716F7B4B7C2B7BC0D9FF7CC0DAFFDF50DD
:100778007D6FCAEF03F02B0E7D19D8A4C6EF03F0E6
:10078800C8EF03F0CAEF03F0B5EF03F0300E7D19A0
:10079800D8A4D1EF03F0D3EF03F058EF04F07B4B6C
:1007A8007C2B7BC0D9FF7CC0DAFFDF507D6F2950DE
:1007B8002A10D8B4E2EF03F0E4EF03F0EEEF03F011
:1007C800100E29182A10D8A4ECEF03F0EEEF03F06E
:1007D80049EF04F0780E7D19D8B4F5EF03F0F7EF80
:1007E80003F000EF04F0580E7D19D8A4FEEF03F0D3
:1007F80000EF04F049EF04F0000E2A6E100E296E87
:100808007B4B7C2B7BC0D9FF7CC0DAFFDF507D6F30
:100818007D512D6E2E6A200E2D12000E2E129F0E67
:100828002D242F6EFF0E2E20306E305007E11A0E49
:100838002F5CD8B022EF04F024EF04F033EF04F07B
:100848007DC011F0126A1AEC17F0C90E1126100EAD
:10085800116031EF04F033EF04F041EF04F07DC094
:1008680013F0146A62EC15F013501410D8A43FEF7B
:1008780004F041EF04F058EF04F0010E0001686F36
:100888007B07D8A07C07C5EF05F0010E686F2950DB
:100898002A10D8A452EF04F054EF04F058EF04F0F3
:1008A800000E2A6E080E296E29502A10D8A45FEF70
:1008B80004F061EF04F065EF04F0000E2A6E0A0EF2
:1008C800296E2B50D8B46BEF04F06DEF04F09AEF5B
:1008D80004F000017151D8A474EF04F076EF04F02D
:1008E80088EF04F0FF0E696FFF0E6A6FFF0E6B6FE3
:1008F800FF0E6C6FFF0E6D6FFF0E6E6FFF0E6F6F4A
:100908007F0E706FA3EF04F0000E696F000E6A6F20
:10091800000E6B6F000E6C6F000E6D6F000E6E6F29
:10092800000E6F6F800E706FA3EF04F0000169690D
:100938006A696B696C696D696E696F69706973C0A2
:1009480060F074C061F075C062F076C063F077C083
:1009580064F078C065F079C066F07AC067F07D51C0
:100968002D6E2E6A200E2D12000E2E129F0E2D2493
:100978002F6EFF0E2E20306E305007E11A0E2F5CBE
:10098800D8B0C9EF04F0CBEF04F0D6EF04F07DC087
:1009980011F0126A1AEC17F01150C90F00017D6F9F
:1009A800E9EF04F0D00E7D252D6E2E6AFF0E2E2263
:1009B8002E5007E10A0E2D5CD8B0E5EF04F0E7EF02
:1009C80004F0A5EF05F0300E7D5F7D512D6E2E6A87
:1009D80029502D5C2E50800A2F6E2A50800A2F58DD
:1009E800D8A0F9EF04F0FBEF04F0FDEF04F0A5EF59
:1009F80005F07251D8A403EF05F005EF05F099EF63
:100A080005F029C00DF02AC00EF0000E0EBEFF0E34
:100A18000F6E106E116E126E136E146E73C015F099
:100A280074C016F075C017F076C018F077C019F0CA
:100A380078C01AF079C01BF07AC01CF066EC14F08C
:100A48000DC02DF00EC02EF00FC02FF010C030F0EA
:100A580011C031F012C032F013C033F014C034F0BA
:100A680000017D512D24736F000E2E20746F000E2F
:100A78002F20756F000E3020766F000E3120776FB3
:100A8800000E3220786F000E3320796F000E34206C
:100A98007A6F6051735D6151745962517559635130
:100AA8007659645177596551785966517959675122
:100AB8007A59D8A062EF05F064EF05F083EF05F0EE
:100AC8002B50D8B46AEF05F06CEF05F099EF05F0FC
:100AD8007351695D74516A5975516B5976516C59E6
:100AE80077516D5978516E5979516F597A517059BA
:100AF800D8B081EF05F083EF05F099EF05F069C0F4
:100B080073F06AC074F06BC075F06CC076F06DC09D
:100B180077F06EC078F06FC079F070C07AF0000E90
:100B2800C96F220EC86F010E726F7B4B7C2B7BC086
:100B3800D9FF7CC0DAFFDF507D6F010E686FA3EF2D
:100B480004F07251D8A4ABEF05F0ADEF05F0C5EF96
:100B580005F07151D8B4B3EF05F0B5EF05F0C5EF66
:100B680005F07A1F791F781F771F761F751F741F6E
:100B7800736D000E742375237623772378237923E6
:100B88007A2327502810D8B4CCEF05F0CEEF05F023
:100B9800E2EF05F06851D8A4D4EF05F0D6EF05F0E0
:100BA800DAEF05F025C07BF026C07CF027C0D9FF1E
:100BB80028C0DAFF7BC0DEFF7CC0DDFF73C025F0F4
:100BC80074C026F075C027F076C028F077C029F0E9
:100BD80078C02AF079C02BF07AC02CF012001E5091
:100BE800800B276E1E501E24296E1DAEFEEF05F0E9
:100BF80000EF06F001EF06F029802950D8B407EF7E
:100C080006F009EF06F01EEF06F02928D8A40FEF2A
:100C180006F011EF06F019EF06F0000E1B6E000E3D
:100C28001C6E000E1D6E000E1E6E1D8E000E1E6EBA
:100C380026EF06F0000E1B6E000E1C6E000E1D6ED9
:100C4800000E1E6E2250800B286E27502818D8B42C
:100C580030EF06F032EF06F033EF06F0278C225023
:100C68002224286E21AE3BEF06F03DEF06F03EEF62
:100C780006F028802850D8B444EF06F046EF06F076
:100C88005BEF06F02828D8A44CEF06F04EEF06F0EC
:100C980056EF06F0000E1F6E000E206E000E216E3D
:100CA800000E226E218E000E226E63EF06F0000EFB
:100CB8001F6E000E206E000E216E000E226E29504F
:100CC800285CD8B06AEF06F06CEF06F093EF06F0F8
:100CD80027AC71EF06F073EF06F075EF06F0800EA3
:100CE800271A29C02AF028C029F02AC028F01BC0DA
:100CF8002AF01FC01BF02AC01FF01CC02AF020C019
:100D08001CF02AC020F01DC02AF021C01DF02AC006
:100D180021F01EC02AF022C01EF02AC022F0000EC8
:100D28002A6E295028C023F0246A235E000E245A14
:100D380024BEA8EF06F0245009E11A0E235CD8A0BF
:100D4800A8EF06F0AAEF06F0E1EF06F01B501C1022
:100D58001D101E10D8A4B3EF06F0B6EF06F0010E72
:100D6800B7EF06F0000E2A6E000E1B6E000E1C6E0A
:100D7800000E1D6E000E1E6E28C029F0EAEF06F068
:100D88002AA0C9EF06F0CBEF06F0D1EF06F0D89015
:100D98002A3001092A6ED3EF06F0D8902A321BA018
:100DA800D8EF06F0DAEF06F0DBEF06F02A8E1E34F5
:100DB8001E321D321C321B32292A2850295CD8A029
:100DC800E8EF06F0EAEF06F0C4EF06F027BCEFEF15
:100DD80006F0F1EF06F031EF07F02950D8A4F7EF4D
:100DE80006F0F9EF06F003EF07F0000E1B6E000E99
:100DF8001C6E000E1D6E000E1E6E52EF08F01F5086
:100E08001B2620501C2221501D2222501E221EA0CB
:100E180010EF07F012EF07F0BEEF07F02AA017EF68
:100E280007F019EF07F01FEF07F0D8902A300109F3
:100E38002A6E21EF07F0D8902A321BA026EF07F080
:100E480028EF07F029EF07F02A8E1E341E321D32D4
:100E58001C321B32292ABEEF07F01F501B5C2050A2
:100E68001C5821501D581E50800A236E2250800A9B
:100E78002358D8B042EF07F044EF07F06FEF07F0C0
:100E88001B501F5C236E1C502058246E1D50215887
:100E9800256E1E502258266EFF0E23241B6EFF0E51
:100EA80024201C6EFF0E25201D6EFF0E26201E6EB0
:100EB800800E271A2A6C2A50D8A465EF07F067EF2E
:100EC80007F077EF07F0010E1B26000E1C221D22EB
:100ED8001E2277EF07F01F501B5E20501C5A21502E
:100EE8001D5A22501E5A1B501C101D101E10D8A42B
:100EF80080EF07F082EF07F0B7EF07F02A50D8A489
:100F080088EF07F08AEF07F0B7EF07F0000E1B6EC7
:100F1800000E1C6E000E1D6E000E1E6E52EF08F0C5
:100F2800D8901B361C361D361E362AAE9EEF07F0AB
:100F3800A0EF07F0A1EF07F01B802AA0A6EF07F0AB
:100F4800A8EF07F0ACEF07F0D8802A36AEEF07F02D
:100F5800D8902A362950D8B4B4EF07F0B6EF07F086
:100F6800B7EF07F029061DAEBCEF07F0BEEF07F09C
:100F780094EF07F0000E286E2AAEC5EF07F0C7EF12
:100F880007F0DFEF07F02AC023F07F0E2316D8B44E
:100F9800D0EF07F0D2EF07F0D6EF07F0010E286E7A
:100FA800DFEF07F01BA0DBEF07F0DDEF07F0DFEF67
:100FB80007F0D2EF07F02850D8B4E5EF07F0E7EFD5
:100FC80007F012EF08F0010E1B26000E1C221D224E
:100FD8001E221EA0F2EF07F0F4EF07F012EF08F060
:100FE8001BC023F01CC024F01DC025F01EC026F035
:100FF8002634263225322432233223C01BF024C063
:101008001CF025C01DF026C01EF02928D8B40FEF0B
:1010180008F011EF08F012EF08F0292A2928D8B4AF
:1010280018EF08F01AEF08F022EF08F02950D8A4BA
:1010380020EF08F022EF08F034EF08F0000E1B6EE6
:10104800000E1C6E000E1D6E000E1E6E2950D8A4D8
:1010580030EF08F032EF08F034EF08F0000E276E9A
:1010680029A039EF08F03BEF08F03EEF08F01D8E9D
:101078003FEF08F01D9ED89029301E6E27AE47EF2F
:1010880008F049EF08F04AEF08F01E8E1BC01BF06D
:101098001CC01CF01DC01DF01EC01EF012001E500A
:1010A800800B276E1E501E242D6E1DAE5EEF08F0BD
:1010B80060EF08F061EF08F02D802D50D8B467EF8D
:1010C80008F069EF08F07CEF08F02D28D8A46FEF3E
:1010D80008F071EF08F079EF08F0000E1B6E000EB3
:1010E8001C6E000E1D6E000E1E6E1D8E84EF08F025
:1010F800000E1B6E000E1C6E000E1D6E000E1E6E86
:101108002250800B271A22502224286E21AE8FEFFE
:1011180008F091EF08F092EF08F028802850D8B432
:1011280098EF08F09AEF08F0ADEF08F02828D8A457
:10113800A0EF08F0A2EF08F0AAEF08F0000E1F6E6B
:10114800000E206E000E216E000E226E218EB5EF6D
:1011580008F0000E1F6E000E206E000E216E000EAD
:10116800226E2850D8B4BBEF08F0BDEF08F0C5EFE9
:1011780008F02D50D8A4C3EF08F0C5EF08F0CFEF62
:1011880008F0000E1B6E000E1C6E000E1D6E000E89
:101198001E6E67EF0AF021501B02F3CF32F0F4CF36
:1011A80033F03250296E2A6A2B6A2C6A33502E6E1D
:1011B8002F6A306A316A20501C02F3CF32F0F4CF24
:1011C80033F032502926000E2A222B222C223350AB
:1011D8002E26000E2F22302231221F501D02F3CF5F
:1011E80032F0F4CF33F032502926000E2A222B2277
:1011F8002C2233502E26000E2F22302231222BC0D3
:101208002CF02AC02BF029C02AF0296A1F501C0292
:10121800F3CF32F0F4CF33F03250292633502A225C
:10122800000E2B22000E2C2220501B02F3CF32F08E
:10123800F4CF33F03250292633502A22000E2B22C5
:10124800000E2C222BC02CF02AC02BF029C02AF02B
:10125800296A1F501B02F3CF32F0F4CF33F032501B
:10126800292633502A22000E2B22000E2C22215030
:101278001C02F3CF32F0F4CF33F032502E26335025
:101288002F22000E3022000E312220501D02F3CFF3
:1012980032F0F4CF33F032502E2633502F22000E86
:1012A8003022000E312221501D02F3CF32F0F4CF4C
:1012B80033F03250236E3350246E256A266A25C0D7
:1012C80026F024C025F023C024F0236A23502E26BC
:1012D80024502F22255030222650312229C023F0B5
:1012E8002AC024F02BC025F02CC026F0190E82EF5E
:1012F80009F0D8902632253224322332E82E7DEFA9
:1013080009F023502E2624502F2225503022265013
:1013180031222BC02CF02AC02BF029C02AF0296AD0
:1013280028502DC023F0246A2326000E2422820E82
:101338002324326EFF0E2420336EB8EF09F0D890C4
:101348002E362F36303631362CAEADEF09F0AFEFF2
:1013580009F0B0EF09F02E80D89029362A362B36BE
:101368002C363206D8A0330630AEBDEF09F0BFEFF9
:1013780009F0A3EF09F0000E286E2CAEC6EF09F0B5
:10138800C8EF09F0ECEF09F0FF0E2914236EFF0EE9
:101398002A14246EFF0E2B14256E7F0E2C14266E35
:1013A8002350241025102610D8B4DDEF09F0DFEF04
:1013B80009F0E3EF09F0010E286EECEF09F02EA01A
:1013C800E8EF09F0EAEF09F0ECEF09F0DFEF09F0D8
:1013D8002850D8B4F2EF09F0F4EF09F018EF0AF04A
:1013E800010E2E26000E2F223022312231A0FFEFCF
:1013F80009F001EF0AF018EF0AF02EC023F02FC011
:1014080024F030C025F031C026F0263426322532AB
:101418002432233223C02EF024C02FF025C030F010
:1014280026C031F0324A332A33BE23EF0AF0335054
:1014380008E13228D8A023EF0AF025EF0AF02FEFB1
:101448000AF0000E2E6E000E2F6E800E306E7F0E8C
:10145800316E5DEF0AF033BE3CEF0AF0335006E11F
:101468003204D8B03AEF0AF03CEF0AF048EF0AF03D
:10147800000E2E6E000E2F6E000E306E000E316EB6
:10148800000E276E5DEF0AF032C02DF0FF0E2E160B
:10149800FF0E2F167F0E3016000E31162DA057EFB7
:1014A8000AF059EF0AF05AEF0AF0308ED8902D3032
:1014B800316E275031122EC01BF02FC01CF030C0E7
:1014C8001DF031C01EF012008CC0D9FF8DC0DAFFAC
:1014D800DECFF6FFDDCFF7FFF86A0800F550250AE2
:1014E800D8A479EF0AF07BEF0AF04DEF0BF08CC02F
:1014F800D9FF8DC0DAFFDE2A000EDD22000E0001C2
:10150800C76F000EC66FC651C711D8A48EEF0AF078
:1015180091EF0AF0010E92EF0AF0000ED06F8CC026
:10152800D9FF8DC0DAFFDECFF6FFDDCFF7FFF86A0F
:101538000800F550640AD8A4A4EF0AF0A6EF0AF050
:10154800EBEF0AF08CC0D9FF8DC0DAFFDE2A000E5F
:10155800DD228AC086F08BC087F0970E886F000E58
:10156800896F36EC0CF086C095F087C096F00001C4
:1015780096BFC7EF0AF0965108E19505D8A0C7EFC6
:101588000AF0C9EF0AF0E5EF0AF08EC0D9FF8FC064
:10159800DAFFDFCF90F0020EDE26DFCF91F0000EEB
:1015A800DD2290C0D9FF91C0DAFFDECF93F0DDCF06
:1015B80094F093C0D9FF94C0DAFF97C0DEFF98C0BB
:1015C800DDFF95C08AF096C08BF035EF0CF08CC02B
:1015D800D9FF8DC0DAFFDECFF6FFDDCFF7FFF86A5F
:1015E8000800F550250AD8A4FCEF0AF0FEEF0AF02F
:1015F80044EF0BF08AC019F08BC01AF0B5EC14F068
:101608008AC010F08BC011F082EC10F010C09FF06F
:1016180011C0A0F0250E00019F19A011D8A417EF42
:101628000BF019EF0BF029EF0BF08CC0D9FF8DC030
:10163800DAFFDE2A000EDD22C24BC32B000E0001AA
:101648008B6F000E8A6F35EF0CF09F2908E1A029F7
:10165800D8B431EF0BF033EF0BF03DEF0BF09FC038
:101668000DF0A0C00EF08AC00FF08BC010F0B3ECE4
:1016780013F0FF0E00018B6FFE0E8A6F35EF0CF032
:101688008CC0D9FF8DC0DAFFDE2A000EDD2222EFE2
:101698000BF08AC010F08BC011F082EC10F010C073
:1016A8009FF011C0A0F08CC0D9FF8DC0DAFFDECF4B
:1016B800F6FFDDCFF7FFF86A0800F550200AD8B426
:1016C80068EF0BF06AEF0BF088EF0BF08CC0D9FFD6
:1016D8008DC0DAFFDECFF6FFDDCFF7FFF86A08002E
:1016E800F5CF90F0F70E00019025916F926BFF0EE9
:1016F8009223925107E1050E915DD8B086EF0BF069
:1017080088EF0BF000EF0CF08CC0D9FF8DC0DAFF2A
:10171800DE2A000EDD228CC0D9FF8DC0DAFFDECFB5
:10172800F6FFDDCFF7FFF86A0800F550200AD8B4B5
:10173800A0EF0BF0A2EF0BF088EF0BF08CC0D9FFF5
:101748008DC0DAFFDECFF6FFDDCFF7FFF86A0800BD
:10175800F5CF90F0F70E00019025916F926BFF0E78
:101768009223925109E1050E915DD8A0BEEF0BF0CE
:10177800C0EF0BF088EF0BF0CEEF0BF0C24BC32B92
:101788008AC010F08BC011F082EC10F010C09FF0EE
:1017980011C0A0F0200E00019F19A011D8B4D7EFF6
:1017A8000BF0D9EF0BF0C2EF0BF0F70E9F25906FFF
:1017B800FF0EA021916F915109E1050E905DD8A00F
:1017C800E8EF0BF0EAEF0BF0C2EF0BF09F2908E10E
:1017D800A029D8B4F2EF0BF0F4EF0BF022EF0BF0E6
:1017E8009FC00DF0A0C00EF08AC00FF08BC010F0A3
:1017F800B3EC13F022EF0BF08CC0D9FF8DC0DAFFE9
:10180800DECFF6FFDDCFF7FFF86A0800F550906FDE
:10181800916B9F51901907E1A0519119D8A417EF26
:101828000CF019EF0CF01BEF0CF019EF0BF09F29DF
:1018380006E1A029D8A423EF0CF025EF0CF029EF3E
:101848000CF08A698B6935EF0CF09FC00DF0A0C0D1
:101858000EF08AC00FF08BC010F0B3EC13F03DEF20
:101868000BF0120086C019F087C01AF0B5EC14F01E
:101878000001C651C711D8A444EF0CF046EF0CF094
:101888004CEF0CF0000E406E1F0E3F6E50EF0CF048
:10189800C6C03FF0C7C040F0000E426E000E416E59
:1018A800D6EF0CF086C010F087C011F082EC10F073
:1018B80010C043F011C044F0432806E14428D8A4DE
:1018C80068EF0CF06AEF0CF083EF0CF00001C651E2
:1018D800C711D8A472EF0CF074EF0CF07DEF0CF088
:1018E80041504210D8A47BEF0CF07DEF0CF083EF51
:1018F8000CF043C086F044C087F04FEF0DF0415024
:101908004210D8A48AEF0CF08CEF0CF0AFEF0CF07B
:101918002B0E43184410D8B494EF0CF096EF0CF04B
:10192800A0EF0CF02D0E43184410D8A49EEF0CF035
:10193800A0EF0CF0AFEF0CF0000E4124D96E010EB1
:101948004220DA6E43C0DFFF414A422A0001C24BFF
:10195800C32BD6EF0CF0D00E4324356EFF0E442077
:10196800366E365009E10A0E355CD8A0BEEF0CF091
:10197800C0EF0CF0A0EF0CF0432808E14428D8B4DD
:10198800C8EF0CF0CAEF0CF0F0EF0CF043C00DF00C
:1019980044C00EF086C00FF087C010F0B3EC13F00F
:1019A800F0EF0CF03F50415C4250800A356E4050D9
:1019B800800A3558D8B0E3EF0CF0E5EF0CF0F0EF03
:1019C8000CF0425009E11F0E415CD8A0EEEF0CF07C
:1019D800F0EF0CF056EF0CF0000E4124D96E010E1A
:1019E8004220DA6EDF6A000E00017E6F010E7F6F03
:1019F8003D0E806F000E816F000E836F0A0E826F9E
:101A08007BEC16F07EC035F07FC036F080C037F032
:101A180081C038F082C039F083C03AF084C03BF00E
:101A280085C03CF088C0D9FF89C0DAFF35C0DEFF29
:101A380036C0DEFF37C0DEFF38C0DEFF39C0DEFF4C
:101A48003AC0DEFF3BC0DEFF3CC0DEFF0001C851EC
:101A5800C911D8A432EF0DF034EF0DF04BEF0DF0B3
:101A680041504210D8B43BEF0DF03DEF0DF04BEF75
:101A78000DF0D051D8B443EF0DF046EF0DF0010E44
:101A880047EF0DF0000E866F876B4FEF0DF0FF0EDE
:101A9800876FFE0E866F120020EE0CF03E50D9269E
:101AA8003F50DA2210EE0EF03E50E1263F50E2227F
:101AB800DECFE6FFDDCFE5FF20EE02F03C50D92671
:101AC8003D50DA22DECF40F0DDCF41F03CC0D9FFF7
:101AD8003DC0DAFFDECF42F0DDCF43F04050425C3C
:101AE800446E41504358456E20EE0CF03E50D926C6
:101AF8003F50DA2244C0DEFF45C0DDFF20EE10F083
:101B08003E50D9263F50DA2210EE11F03E50E12621
:101B18003F50E222DFCFE7FF20EE08F03E50D92603
:101B28003F50DA22DECF1FF0DECF20F0DECF21F0EB
:101B3800DECF22F020EE0CF03E50D9263F50DA22BC
:101B4800DECF0DF0DDCF0EF0000E0EBEFF0E0F6ED5
:101B5800106E010E47EC0EF00DC01BF00EC01CF00D
:101B68000FC01DF010C01EF053EC08F01BC034F07D
:101B78001CC035F01DC036F01EC037F03EC0D9FF7E
:101B88003FC0DAFFDECF1FF0DECF20F0DECF21F03E
:101B9800DECF22F020EE0EF03E50D9263F50DA225A
:101BA800DECF0DF0DDCF0EF0000E0EBEFF0E0F6E75
:101BB800106E010E47EC0EF00DC01BF00EC01CF0AD
:101BC8000FC01DF010C01EF053EC08F01BC038F019
:101BD8001CC039F01DC03AF01EC03BF036EC16F0C0
:101BE80034C060F035C061F036C062F037C063F0D1
:101BF80020EE10F03E50D9263F50DA2260C01FF088
:101C080061C020F062C021F063C022F010EE11F034
:101C18003E50E1263F50E222E750406E40500D6EA4
:101C28000E6A0F6A106A010E47EC0EF00DC01BF029
:101C38000EC01CF00FC01DF010C01EF0F3EC05F034
:101C48001BC02BF01CC02CF01DC02DF01EC02EF0A8
:101C580096EC11F02B50DF6E20EE10F03E50D92696
:101C68003F50DA225F0EDF643CEF0EF03EEF0EF0DD
:101C780046EF0EF020EE10F03E50D9263F50DA2203
:101C88005F0EDF6E1200156E1550D8B44EEF0EF0D1
:101C980050EF0EF072EF0EF010BE57EF0EF055EF4A
:101CA8000EF072EF0EF00DC011F00EC012F00FC062
:101CB80013F010C014F0111E121E131E141E112A48
:101CC800000E12221322142211C017F012C018F0AD
:101CD80013C019F014C01AF07AEF0EF00DC017F007
:101CE8000EC018F00FC019F010C01AF00D500E10E9
:101CF8000F101010D8A483EF0EF085EF0EF08FEFC1
:101D08000EF0000E0D6E000E0E6E000E0F6E000E21
:101D1800106E20EF0FF0960E166E99EF0EF0162A41
:101D2800D8901A32193218321732000E1714116E61
:101D3800000E1814126E000E1914136EFE0E1A14EB
:101D4800146E1150121013101410D8A4AEEF0EF028
:101D5800B0EF0EF093EF0EF0BEEF0EF0162A010E64
:101D68001726000E182219221A22D8901A32193270
:101D780018321732000E1714116E000E1814126E56
:101D8800000E1914136EFF0E1A14146E115012104F
:101D980013101410D8A4D3EF0EF0D5EF0EF0B2EF55
:101DA8000EF0DDEF0EF01606D890173618361936F5
:101DB8001A3619BEE2EF0EF0E4EF0EF0ECEF0EF07B
:101DC800020E1660EAEF0EF0ECEF0EF0D7EF0EF011
:101DD80016B0F1EF0EF0F3EF0EF0F4EF0EF0199EDF
:101DE800D890163216C011F0126A136A146A11C01C
:101DF80014F0136A126A116A11501712125018124D
:101E08001350191214501A121550D8B40EEF0FF0BF
:101E180010EF0FF018EF0FF010BE17EF0FF015EFDF
:101E28000FF018EF0FF01A8E17C00DF018C00EF053
:101E380019C00FF01AC010F012002DBE26EF0FF0D7
:101E480029EF0FF0010E2AEF0FF0000E346E345018
:101E5800D8B431EF0FF033EF0FF037EF0FF02C6CF1
:101E68002D1ED8B02D2A0001CDBF3FEF0FF03DEF5A
:101E78000FF045EF0FF0000E316E010E306E49EF96
:101E88000FF0CCC030F0CDC031F0CAC032F0CBC0BA
:101E980033F03450D8B453EF0FF055EF0FF06CEF28
:101EA8000FF03206D8A033063450D8A45EEF0FF0F6
:101EB80060EF0FF066EF0FF0000E2F6E2B0E2E6EF8
:101EC8006AEF0FF0000E2F6E2D0E2E6E2EC034F01E
:101ED800000E366E1F0E356E000E01013F6FA5EF26
:101EE8000FF03506D8A03606200E3524D96E010E1F
:101EF8003620DA6E2CC00DF02DC00EF0000E106EDC
:101F08000A0E0F6E0EEC14F00DC013F00EC014F094
:101F18009CEC16F01350300FDF6E3006D8A0310657
:101F28003206D8A033062CC00DF02DC00EF0000EDE
:101F3800106E0A0E0F6E51EC13F00DC02CF00EC08F
:101F48002DF036BEB0EF0FF0365008E13504D8A0BA
:101F5800B0EF0FF0B2EF0FF0C8EF0FF02C502D10CC
:101F6800D8A4B9EF0FF0BBEF0FF075EF0FF031BE4B
:101F7800C8EF0FF0315006E13004D8B0C6EF0FF0CB
:101F8800C8EF0FF075EF0FF03450D8B4CEEF0FF064
:101F9800D0EF0FF0DBEF0FF03506D8A03606200E95
:101FA8003524D96E010E3620DA6E34C0DFFF2AC020
:101FB8001FF02BC020F0200E3524216E010E362094
:101FC800226E32C023F033C024F0F3EC14F0120078
:101FD80039C0D9FF3AC0DAFFDECFF6FFDDCFF7FF11
:101FE800F86A0800F550250AD8A4FDEF0FF0FFEFB6
:101FF8000FF06CEF10F039C0D9FF3AC0DAFFDE2AD3
:10200800000EDD22000E0001CB6F000ECA6FCAC0A1
:10201800D1F0CC69CD6939C0D9FF3AC0DAFFDECF3B
:1020280043F0DDCF44F043C0F6FF44C0F7FFF86A41
:102038000800F550640AD8B424EF10F026EF10F029
:1020480035EF10F043C0F6FF44C0F7FFF86A080008
:10205800F550690AD8A433EF10F035EF10F063EFAC
:1020680010F03BC0D9FF3CC0DAFFDFCF3DF0020ED5
:10207800DE26DFCF3EF0000EDD223DC0D9FF3EC098
:10208800DAFFDECF3FF0DDCF40F0010E43243D6E96
:10209800000E44203E6E39C0D9FF3AC0DAFF3DC079
:1020A800DEFF3EC0DDFF37C02AF038C02BF03FC04E
:1020B8002CF040C02DF021EC0FF081EF10F039C06A
:1020C800D9FF3AC0DAFFDE2A000EDD2281EF10F0D8
:1020D80039C0D9FF3AC0DAFFDECFF6FFDDCFF7FF10
:1020E800F86A0800F5500F6E106A37C011F038C052
:1020F80012F0ECEC12F063EF10F012001050111017
:10210800D8A489EF10F08BEF10F0A9EF10F0495028
:10211800D8B491EF10F093EF10F0A1EF10F049064A
:10212800BF0E4924D96EDA6A000EDA22DF50126E29
:102138001250176E186A0BEF11F0BDEC18F00DC0B5
:1021480017F00EC018F00BEF11F020EE08F0105049
:10215800D9261150DA22DE50DE10D8B4B6EF10F0CE
:10216800B8EF10F0D8EF10F020EE08F01050D92694
:102178001150DA22DE06000EDD5ADECF12F0DDCF76
:1021880013F012501024146E13501120156E050E02
:102198001424D96E000E1520DA6EDF50166E165014
:1021A800176E186A0BEF11F020EE03F01050D926C5
:1021B8001150DA22DECF12F0DDCF13F010C0D9FFB4
:1021C80011C0DAFFDECF14F0DDCF15F01250142461
:1021D800D96E13501520DA6EDF50166E1650176E32
:1021E800186A17501810D8A4FCEF10F0FEEF10F082
:1021F80002EF11F0176818680BEF11F020EE03F0EA
:102208001050D9261150DA22DE2A000EDD2217C01E
:1022180010F018C011F01200000E166E14BE19EF5F
:1022280011F017EF11F023EF11F0141E131E121EF8
:10223800116C000E122213221422010E166E10BE0B
:102248002AEF11F028EF11F034EF11F0101E0F1ED5
:102258000E1E0D6C000E0E220F221022010E161AF1
:10226800000E176E000E186E000E196E000E1A6E14
:102278001150121013101410D8B445EF11F047EF95
:1022880011F07DEF11F0010E156E51EF11F0D8909D
:102298001136123613361436152A14AE56EF11F0CD
:1022A80058EF11F04BEF11F0D89017361836193651
:1022B8001A3611500D5C12500E5813500F58145006
:1022C8001058D8A06AEF11F06CEF11F075EF11F00B
:1022D80011500D5E12500E5A13500F5A1450105AC6
:1022E8001780D8901432133212321132152E58EF4B
:1022F80011F01650D8B483EF11F085EF11F08DEF7F
:1023080011F01A1E191E181E176C000E1822192219
:102318001A2217C00DF018C00EF019C00FF01AC01D
:1023280010F012002D342E34346E3450D8A49FEFA0
:1023380011F0A1EF11F0ABEF11F0000E2B6E000EB3
:102348002C6E000E2D6E000E2E6E18EF12F02BC0A4
:102358002FF02CC030F02DC031F02EC032F0200EFE
:10236800BBEF11F0D8903232313230322F32E82EB2
:10237800B6EF11F02F50336E2D8EFF0E2B16FF0E79
:102388002C16FF0E2D16000E2E16960E345E34BE39
:10239800D2EF11F0D0EF11F0E8EF11F03450800ACD
:1023A800970FD8B0DAEF11F0DCEF11F0DEEF11F093
:1023B800A1EF11F0D8902E322D322C322B32343E30
:1023C800DEEF11F000EF12F01F0E3464EEEF11F0A3
:1023D800F0EF11F0F8EF11F0A1EF11F0D8902B36D3
:1023E8002C362D362E3634063450D8A4FEEF11F094
:1023F80000EF12F0F2EF11F03350D8B406EF12F0FC
:1024080008EF12F010EF12F02E1E2D1E2C1E2B6C52
:10241800000E2C222D222E222BC02BF02CC02CF0AB
:102428002DC02DF02EC02EF0120066EF12F0815054
:10243800D8B421EF12F023EF12F083EF12F0010E5F
:102448004C6E000E4B6E81CF4AF083EF12F0815034
:102458004A18D8A432EF12F034EF12F041EF12F01C
:102468004B2A0A0E4B643BEF12F03DEF12F083EF5C
:1024780012F0020E4C6E83EF12F0000E4C6E83EFDA
:1024880012F08150D8A44BEF12F04DEF12F083EF09
:1024980012F0030E4C6E83EF12F04AC0D2F0000E19
:1024A8004C6E000E4B6E000E4A6E83EF12F0000E5B
:1024B8004C6E000E4B6E000E4A6E000E0001D26F7D
:1024C80083EF12F04C50016E026A0250000AD8B431
:1024D80070EF12F05BEF12F00150000AD8B41BEF56
:1024E80012F0010AD8B42BEF12F0030AD8B445EF62
:1024F80012F0010AD8B451EF12F05BEF12F012009B
:10250800A3C0ABF0A4C0ACF0000E0001C36F000E76
:10251800C26FC2C0C4F0C3C0C5F0C8C0A7F0C9C06C
:10252800A8F0BBEF12F0000EC96F000EC86FA1C073
:102538008AF0A2C08BF0AB0E8C6F000E8D6FA5C019
:102548008EF0A6C08FF068EC0AF08AC0A9F08BC0A4
:10255800AAF00001AABFB5EF12F0B3EF12F0B7EF7F
:1025680012F0CAEF12F0A951C427AA51C523ABC073
:10257800F6FFACC0F7FFF86A0800F5500009D8A4C8
:10258800C8EF12F0CAEF12F097EF12F0A7C0C8F028
:10259800A8C0C9F0A92906E1AA29D8A4D6EF12F043
:1025A800D8EF12F0E7EF12F0C451C511D8A4DFEF4D
:1025B80012F0E1EF12F0E7EF12F0A9C0A1F0AAC003
:1025C800A2F0EBEF12F0C4C0A1F0C5C0A2F0120057
:1025D80011501210D8B4F3EF12F0F5EF12F0FEEF2D
:1025E80012F011501210D8A4FCEF12F0FEEF12F006
:1025F80003EF13F00F50CBEC18F050EF13F020EE70
:102608000AF01150D9261250DA22DE50DE10D8B462
:1026180010EF13F012EF13F02DEF13F020EE0AF085
:102628001150D9261250DA2210EE03F01150E1268B
:102638001250E222DE50E65CE650800A176EDE5049
:10264800800A1758D8B02BEF13F02DEF13F050EF86
:1026580013F020EE03F01150D9261250DA22DECF03
:1026680013F0DDCF14F011C0D9FF12C0DAFFDECFAE
:1026780015F0DDCF16F013501524D96E145016201E
:10268800DA6E0FC0DFFF20EE03F01150D92612508A
:10269800DA22DE2A000EDD221200000E126E10BEB3
:1026A8005AEF13F058EF13F060EF13F00F6C101E91
:1026B800D8B0102A010E126E0EBE67EF13F065EF48
:1026C80013F06DEF13F00D6C0E1ED8B00E2A010E2C
:1026D800121A000E146E000E136E0F501010D8B49C
:1026E80078EF13F07AEF13F0A2EF13F0010E116EEA
:1026F80082EF13F0D8900F361036112A10AE87EFFC
:1027080013F089EF13F07EEF13F0D89013361436D8
:102718000F500D5C10500E58D8A095EF13F097EF9E
:1027280013F09CEF13F00F500D5E10500E5A1380EB
:10273800D89010320F32112E89EF13F01250D8B4FE
:10274800A8EF13F0AAEF13F0AEEF13F0136C141EFA
:10275800D8B0142A13C00DF014C00EF012000D28C2
:1027680006E10E28D8A4BBEF13F0BDEF13F0BFEFBE
:1027780013F00DEF14F00F501010D8A4C6EF13F09B
:10278800C8EF13F0DCEF13F0030E4918D8B4CFEFFD
:1027980013F0D1EF13F00DEF14F0BF0E4924D96EEA
:1027A800DA6A000EDA220DC0DFFF492A0DEF14F0B5
:1027B80020EE08F00F50D9261050DA22030EDE184A
:1027C800DE10D8B4EAEF13F0ECEF13F00DEF14F0CD
:1027D80020EE08F00F50D9261050DA22DECF11F083
:1027E800DDCF12F011500F24136E12501020146E0A
:1027F800050E1324D96E000E1420DA6E0DC0DFFF0B
:1028080020EE08F00F50D9261050DA22DE2A000EEA
:10281800DD221200000E126E0EBE17EF14F015EF37
:1028280014F01DEF14F00D6C0E1ED8B00E2A010E18
:10283800126E10BE24EF14F022EF14F028EF14F0FB
:102848000F6C101ED8B0102A0F501010D8B42FEFEC
:1028580014F031EF14F055EF14F0010E116E39EF4A
:1028680014F0D8900F361036112A10AE3EEF14F03F
:1028780040EF14F035EF14F00F500D5C10500E5867
:10288800D8A049EF14F04BEF14F04FEF14F00F50AD
:102898000D5E10500E5AD89010320F32112E40EFA4
:1028A80014F01250D8B45BEF14F05DEF14F061EF40
:1028B80014F00D6C0E1ED8B00E2A0DC00DF00EC00F
:1028C8000EF0120020EE1DF0070EDE6AE806FDE2AB
:1028D8000DA071EF14F073EF14F083EF14F015509E
:1028E8001D2616501E2217501F221850202219503C
:1028F80021221A5022221B5023221C502422D89015
:10290800153616361736183619361A361B361C364B
:10291800D890143213321232113210320F320E3272
:102928000D320D500E100F10101011101210131040
:102938001410D8A4A2EF14F0A4EF14F06CEF14F064
:102948001DC00DF01EC00EF01FC00FF020C010F00B
:1029580021C011F022C012F023C013F024C014F0DB
:102968001200DEEF14F0200E1D181E10D8B4BFEFB1
:1029780014F0C1EF14F0DEEF14F0F70E1D241B6EF7
:10298800FF0E1E201C6E1C5009E1050E1B5CD8A012
:10299800D0EF14F0D2EF14F0DEEF14F01DC00DF0FC
:1029A8001EC00EF019C00FF01AC010F0B3EC13F0EF
:1029B800F2EF14F019C010F01AC011F082EC10F008
:1029C80010C01DF011C01EF01D2806E11E28D8A455
:1029D800F0EF14F0F2EF14F0B7EF14F0120024BE89
:1029E800F8EF14F0FAEF14F000EF15F023C028F018
:1029F80024C029F004EF15F0000E296E000E286E91
:102A0800000E276E000E266E16EF15F0000E106EE3
:102A1800200E0F6E1FC011F020C012F0ECEC12F067
:102A2800264A272A2850265C2750800A256E2950D6
:102A3800800A2558D8A023EF15F025EF15F00AEFE6
:102A480015F021C018F022C019F01FC01AF020C0DC
:102A58001BF059EC16F012000F501010D8B437EFD5
:102A680015F039EF15F05DEF15F0010E116E41EF1D
:102A780015F0D8900F361036112A10AE46EF15F023
:102A880048EF15F03DEF15F00F500D5C10500E5843
:102A9800D8A051EF15F053EF15F057EF15F00F5080
:102AA8000D5E10500E5AD89010320F32112E48EF8A
:102AB80015F00DC00DF00EC00EF01200010E196ECB
:102AC800200E1310156E000E1410166E9F0E15248E
:102AD800176EFF0E1620186E185009E11A0E175CB3
:102AE800D8A079EF15F07BEF15F08EEF15F0D00E2A
:102AF8001324156EFF0E1420166E165009E10A0EE7
:102B0800155CD8A08AEF15F08CEF15F08EEF15F054
:102B1800000E196E19C013F0146A120052824E503A
:102B2800020DB30EF324D96E000EF420DA6E01C044
:102B3800DEFF02C0DDFF4E28030B4E6E0001B751C9
:102B4800B525036EB851B621046EB9510326BA51A2
:102B58000422B3510324506EB4510420516E50C066
:102B680003F051C004F0D89004320332D8900432F4
:102B7800033203C050F004C051F0120062C045F0A7
:102B880063C046F0D6EF15F060C037F061C038F08A
:102B9800450E396E000E3A6E64C03BF065C03CF0DD
:102BA800ECEC0FF045C0F6FF46C0F7FFF86A0800E6
:102BB800F5500009D8A4E3EF15F0E5EF15F0C8EFDC
:102BC80015F0000E0001616F000E606F1200C80E54
:102BD800F66E310EF76E000EF86E00EEDBF010EEBA
:102BE80004F00900F5CFEEFFE550E150FAE101EEFF
:102BF80000F0400EEE6AE806FDE100EEB3F0200EAC
:102C0800EE6AE806FDE1526A00EE47F00B0EEE6A46
:102C1800E806FDE15390539200014EEF00F0010EDB
:102C2800116E200E0D180E10D8B41DEF16F01FEF00
:102C380016F032EF16F0F70E0D240F6EFF0E0E2071
:102C4800106E105009E1050E0F5CD8A02EEF16F09B
:102C580030EF16F032EF16F0000E116E11C00DF0C5
:102C68000E6A1200000E381A000E391A000E3A1AAF
:102C7800800E3B1A34C01BF035C01CF036C01DF066
:102C880037C01EF038C01FF039C020F03AC021F01C
:102C98003BC022F0F3EC05F01BC034F01CC035F04B
:102CA8001DC036F01EC037F01200000E1E6E000E5A
:102CB8001D6E6AEF16F01CC00FF0106A1AC011F0F2
:102CC8001BC012F0ECEC12F01D4A1E2A1D501824ED
:102CD800D96E1E501920DA6EDF501C6E1C50D8A415
:102CE80078EF16F07AEF16F05FEF16F012007EC05C
:102CF80025F07FC026F080C027F081C028F082C070
:102D080029F083C02AF0010E2B6E3BEC03F025C09E
:102D18007EF026C07FF027C080F028C081F029C04F
:102D280082F02AC083F02BC084F02CC085F01200FA
:102D380014BEA9EF16F0145006E11304D8B0A7EF9B
:102D480016F0A9EF16F0B7EF16F013C015F014C07F
:102D580016F0151E161E154A162A15C013F016C0B1
:102D680014F0BBEF16F013C013F014C014F01200E7
:102D7800528019EC12F04D2A640E4D18D8A4C7EFF2
:102D880016F0C9EF16F0DBEF16F0000E4D6E84B0AA
:102D9800D0EF16F0D3EF16F0010ED4EF16F0000EB8
:102DA800FF0A036E84500318FE0B0318846E12008A
:102DB800000E8D6E000E8C6E000E896E000E8A6EEF
:102DC800000E8B6E000E966E92689368BB0E946E22
:102DD80095680F013B693C0E3A6F000E396F000E83
:102DE8003C6F2F0E386F000E616EF18E1200080EC8
:102DF800B86E900EAB6E240EAC6E220EAF6E000E47
:102E0800B06E000E0D6E000E0E6EDAEC18F0000EAD
:102E18000D6E000E0E6ED5EC18F0000E0D6E000E45
:102E28000E6EDFEC18F0000E4F6E12009F0E11248C
:102E3800136EFF0E1220146E145007E11A0E135C65
:102E4800D8B029EF17F02BEF17F031EF17F05F0E1E
:102E58001114116E126A35EF17F011C011F012C07B
:102E680012F01200200E0D100F6E000E0E10106ED4
:102E78009F0E0F24116EFF0E1020126E12500AE1E1
:102E88001A0E115CD8A04BEF17F04EEF17F0010E99
:102E98004FEF17F0000E0D6E0E6A1200F2944850B4
:102EA800D76E47C0D6FF0001D951DA11D8B45FEF09
:102EB80017F061EF17F06DEF17F002D86DEF17F00C
:102EC8000500FA6ED951FD6EDA51FE6EFF6AFA50AE
:102ED80012001200D59C630ED76EBF0ED66ED65068
:102EE800D7CF0FF0106A0FC010F00F6A0F10476E9F
:102EF8001050486EF294F28AD00E0D6E310E0E6E9E
:102F0800D0EC18F09F0ED56E1200106E000E116EE8
:102F180098EF17F08468030E0E6EE80E0D6EA2ECA3
:102F280017F0000E846E112A1050115CD8A09FEF84
:102F380017F0A1EF17F08EEF17F01200ACEF17F0B3
:102F4800060E0F6E300EE82EFED70F2EFCD700D0DF
:102F58000D06D8A00E060D2806E10E28D8A4B7EF56
:102F680017F0B9EF17F0A4EF17F012000DC00FF02B
:102F78000EC010F0D89010320F32D89010320F32A5
:102F88000F50BE6E0DC00FF0030E0F160F3AF00E65
:102F98000F16BD50CF0B0F10BD6E12009F0E0D24E3
:102FA8000F6EFF0E0E20106E10500AE11A0E0F5C05
:102FB800D8A0E1EF17F0E4EF17F0010EE5EF17F0F6
:102FC800000E0D6E0E6A1200D00E0D240F6EFF0E4D
:102FD8000E20106E10500AE10A0E0F5CD8A0F7EF11
:102FE80017F0FAEF17F0010EFBEF17F0000E0D6E59
:102FF8000E6A1200AF0E456E000E466E000E0001FE
:10300800A16F000EA26FADC0A3F0AEC0A4F0450E34
:10301800A56F000EA66F84EC12F012009EAA17EF9F
:1030280018F019EF18F012EF18F0000E4F6EABA25F
:1030380020EF18F022EF18F024EF18F0AB98AB88C7
:10304800AE501200680E00016A6F000E6B6F000E22
:10305800606F000E616F66C062F067C063F06A0E51
:10306800646F000E656FC2EC15F01200CDA43FEF3F
:1030780018F041EF18F049EF18F0CD900250CF6EDC
:1030880001C0CEFFCD804DEF18F00250CF6E01C0C9
:10309800CEFF12000D500F02F3CF11F0F4CF12F053
:1030A8000D501002F35012260E500F02F350122644
:1030B80011C00DF012C00EF01200E6EC18F0DCECB6
:1030C80016F0C4EC18F092EC18F074EC18F0B5ECAB
:1030D80018F084EC18F06EEC17F0FBEC16F0120008
:1030E8003C0EBD6E000EB66E800EB76E010EB96E48
:1030F800000EBF6E630EBE6EFC0E0F014917120064
:10310800000ECC6EE00ECF6E000ECE6ECECFCEF09F
:10311800CFCFCFF09E90310ECD6E1200050E666EA9
:10312800000E686E000E676EA190A080E70E0F017A
:1031380049171200A19067CF05F068CF06F005C0C7
:1031480001F006C002F092EC15F012000D6E9EA878
:10315800B0EF18F0B2EF18F0ABEF18F00DC0ADFFFC
:103168001200C70EBB6E000EBC6E9E92040EBA6EA5
:10317800120012EC18F00F6E0F500D6E0E6A12004E
:10318800700ED36E040ED26E000E9B6E12000E6E81
:103198000E50AAEC18F012000DC0D9F00EC0DAF0EB
:1031A80012000DC0D5F00EC0D6F012000DC0D7F039
:1031B8000EC0D8F012000DC0D3F00EC0D4F012002B
:0A31C80032003200D09E1200120007
:10FEBC00000A20456E7465722043686F6963652E75
:10FECC002031202D204F70656E204C6F6F70202CD0
:10FEDC002032202D20436C6F736564204C6F6F7043
:10FEEC00200D0A000A20456E746572204465736902
:10FEFC007265642052524D2056616C75652031201C
:10FF0C002831303020746F20323530293E200D0AD4
:10FF1C00000A20456E7465722044657369726564CD
:10FF2C002052524D2056616C75652032202831309C
:10FF3C003020746F20323530293E200D0A000D0A16
:10FF4C004D6F746F7220436F6E74726F6C6C657250
:10FF5C002050726F6772616D205374617274696E98
:10FF6C0067200D0A000A52756E6E696E6720436C2D
:10FF7C006F736564204C6F6F7020504920436F6E17
:10FF8C0074726F6C0D0A00456E7465722050574D7B
:10FF9C002076616C756520312028343020746F20F8
:10FFAC003830293E200D0A00456E7465722050577A
:10FFBC004D2076616C756520322028343020746FAA
:10FFCC00203830293E200D0A000A2052756E6E69C9
:10FFDC006E67204F70656E204C6F6F7020436F6E94
:10FFEC0074726F6C0D0A0025640D0A000909002556
:03FFFC006400009E
:020000040030CA
:0E000000FF281F3CFFBF85FF0FC00FE00F4021
:00000001FF
